{"abi":[{"type":"constructor","inputs":[{"name":"_wormhole","type":"address","internalType":"address"}],"stateMutability":"nonpayable"},{"type":"function","name":"decodeCommentVaa","inputs":[{"name":"payload","type":"bytes","internalType":"bytes"}],"outputs":[{"name":"","type":"tuple","internalType":"struct CommentIntegrator.CommentVaa","components":[{"name":"to","type":"address","internalType":"address"},{"name":"comment","type":"string","internalType":"string"}]}],"stateMutability":"pure"},{"type":"function","name":"encodeCommentVaa","inputs":[{"name":"to","type":"address","internalType":"address"},{"name":"comment","type":"string","internalType":"string"}],"outputs":[{"name":"","type":"bytes","internalType":"bytes"}],"stateMutability":"pure"},{"type":"function","name":"getMessageFee","inputs":[],"outputs":[{"name":"fee","type":"uint256","internalType":"uint256"}],"stateMutability":"view"},{"type":"function","name":"relayComment","inputs":[{"name":"encodedVaa","type":"bytes","internalType":"bytes"}],"outputs":[],"stateMutability":"nonpayable"},{"type":"function","name":"sendComment","inputs":[{"name":"to","type":"address","internalType":"address"},{"name":"comment","type":"string","internalType":"string"},{"name":"nonce","type":"uint32","internalType":"uint32"},{"name":"consistencyLevel","type":"uint8","internalType":"uint8"}],"outputs":[{"name":"sequence","type":"uint64","internalType":"uint64"}],"stateMutability":"payable"},{"type":"function","name":"wormhole","inputs":[],"outputs":[{"name":"","type":"address","internalType":"address"}],"stateMutability":"view"},{"type":"event","name":"CommentReceived","inputs":[{"name":"fromChain","type":"uint16","indexed":true,"internalType":"uint16"},{"name":"fromAddress","type":"bytes32","indexed":true,"internalType":"bytes32"},{"name":"to","type":"address","indexed":true,"internalType":"address"},{"name":"comment","type":"string","indexed":false,"internalType":"string"}],"anonymous":false},{"type":"event","name":"CommentSent","inputs":[{"name":"sender","type":"address","indexed":true,"internalType":"address"},{"name":"to","type":"address","indexed":true,"internalType":"address"},{"name":"comment","type":"string","indexed":false,"internalType":"string"},{"name":"sequence","type":"uint64","indexed":false,"internalType":"uint64"}],"anonymous":false}],"bytecode":{"object":"0x60806040523480156200001157600080fd5b5060405162001ad138038062001ad1833981810160405281019062000037919062000108565b600073ffffffffffffffffffffffffffffffffffffffff168173ffffffffffffffffffffffffffffffffffffffff161415620000aa576040517f08c379a0000000000000000000000000000000000000000000000000000000008152600401620000a1906200015b565b60405180910390fd5b806000806101000a81548173ffffffffffffffffffffffffffffffffffffffff021916908373ffffffffffffffffffffffffffffffffffffffff1602179055505062000205565b6000815190506200010281620001eb565b92915050565b6000602082840312156200011b57600080fd5b60006200012b84828501620000f1565b91505092915050565b6000620001436018836200017d565b91506200015082620001c2565b602082019050919050565b60006020820190508181036000830152620001768162000134565b9050919050565b600082825260208201905092915050565b60006200019b82620001a2565b9050919050565b600073ffffffffffffffffffffffffffffffffffffffff82169050919050565b7f496e76616c696420776f726d686f6c6520616464726573730000000000000000600082015250565b620001f6816200018e565b81146200020257600080fd5b50565b6118bc80620002156000396000f3fe6080604052600436106100555760003560e01c80634316dcd31461005a578063820662991461008557806384acd1bb146100ae578063a4b38329146100d9578063d01263cd14610116578063f99a0fb414610146575b600080fd5b34801561006657600080fd5b5061006f610183565b60405161007c9190611344565b60405180910390f35b34801561009157600080fd5b506100ac60048036038101906100a79190610e15565b610229565b005b3480156100ba57600080fd5b506100c36103a3565b6040516100d091906111d3565b60405180910390f35b3480156100e557600080fd5b5061010060048036038101906100fb9190610e15565b6103c7565b60405161010d9190611322565b60405180910390f35b610130600480360381019061012b9190610d9a565b610507565b60405161013d919061139d565b60405180910390f35b34801561015257600080fd5b5061016d60048036038101906101689190610d46565b610638565b60405161017a91906111ee565b60405180910390f35b60008060009054906101000a900473ffffffffffffffffffffffffffffffffffffffff1673ffffffffffffffffffffffffffffffffffffffff16631a90a2196040518163ffffffff1660e01b815260040160206040518083038186803b1580156101ec57600080fd5b505afa158015610200573d6000803e3d6000fd5b505050506040513d601f19601f820116820180604052508101906102249190610ed5565b905090565b60008060008060009054906101000a900473ffffffffffffffffffffffffffffffffffffffff1673ffffffffffffffffffffffffffffffffffffffff1663c0fd8bde856040518263ffffffff1660e01b815260040161028891906111ee565b60006040518083038186803b1580156102a057600080fd5b505afa1580156102b4573d6000803e3d6000fd5b505050506040513d6000823e3d601f19601f820116820180604052508101906102dd9190610e56565b925092509250818190610326576040517f08c379a000000000000000000000000000000000000000000000000000000000815260040161031d9190611210565b60405180910390fd5b5060006103368460e001516103c7565b9050806000015173ffffffffffffffffffffffffffffffffffffffff168460800151856060015161ffff167f7baf90d240d5223c32e7e9e096dcb41f9f164a2cb8456b69f6db40091ec5586984602001516040516103949190611210565b60405180910390a45050505050565b60008054906101000a900473ffffffffffffffffffffffffffffffffffffffff1681565b6103cf610862565b601682511015610414576040517f08c379a000000000000000000000000000000000000000000000000000000000815260040161040b906112c2565b60405180910390fd5b60008061042a828561066790919063ffffffff16565b905060148261043991906114bf565b9150600061045083866106dd90919063ffffffff16565b905060028361045f91906114bf565b92508061ffff168361047191906114bf565b855110156104b4576040517f08c379a00000000000000000000000000000000000000000000000000000000081526004016104ab90611302565b60405180910390fd5b60006104cf848361ffff16886107449092919063ffffffff16565b905060405180604001604052808473ffffffffffffffffffffffffffffffffffffffff16815260200182815250945050505050919050565b6000806105148686610638565b905060008054906101000a900473ffffffffffffffffffffffffffffffffffffffff1673ffffffffffffffffffffffffffffffffffffffff1663b19a437e348684876040518563ffffffff1660e01b81526004016105749392919061135f565b6020604051808303818588803b15801561058d57600080fd5b505af11580156105a1573d6000803e3d6000fd5b50505050506040513d601f19601f820116820180604052508101906105c69190610efe565b91508573ffffffffffffffffffffffffffffffffffffffff163373ffffffffffffffffffffffffffffffffffffffff167fbc8ef7b791975566187ef24cd4ccc3a44c284a10203ae53d2e1ef230e6887a358785604051610627929190611232565b60405180910390a350949350505050565b6060828251836040516020016106509392919061119a565b604051602081830303815290604052905092915050565b600060148261067691906114bf565b835110156106b9576040517f08c379a00000000000000000000000000000000000000000000000000000000081526004016106b0906112a2565b60405180910390fd5b60006c01000000000000000000000000836020860101510490508091505092915050565b60006002826106ec91906114bf565b8351101561072f576040517f08c379a000000000000000000000000000000000000000000000000000000000815260040161072690611262565b60405180910390fd5b60008260028501015190508091505092915050565b606081601f8361075491906114bf565b1015610795576040517f08c379a000000000000000000000000000000000000000000000000000000000815260040161078c90611282565b60405180910390fd5b81836107a191906114bf565b845110156107e4576040517f08c379a00000000000000000000000000000000000000000000000000000000081526004016107db906112e2565b60405180910390fd5b60608215600081146108055760405191506000825260208201604052610856565b6040519150601f8416801560200281840101858101878315602002848b0101015b818310156108435780518352602083019250602081019050610826565b50868552601f19601f8301166040525050505b50809150509392505050565b6040518060400160405280600073ffffffffffffffffffffffffffffffffffffffff168152602001606081525090565b60006108a56108a0846113dd565b6113b8565b905080838252602082019050828560808602820111156108c457600080fd5b60005b858110156108f457816108da8882610b07565b8452602084019350608083019250506001810190506108c7565b5050509392505050565b600061091161090c84611409565b6113b8565b90508281526020810184848401111561092957600080fd5b6109348482856115a6565b509392505050565b600061094f61094a84611409565b6113b8565b90508281526020810184848401111561096757600080fd5b6109728482856115b5565b509392505050565b600061098d6109888461143a565b6113b8565b9050828152602081018484840111156109a557600080fd5b6109b08482856115a6565b509392505050565b60006109cb6109c68461143a565b6113b8565b9050828152602081018484840111156109e357600080fd5b6109ee8482856115b5565b509392505050565b600081359050610a05816117ce565b92915050565b600082601f830112610a1c57600080fd5b8151610a2c848260208601610892565b91505092915050565b600081519050610a44816117e5565b92915050565b600081519050610a59816117fc565b92915050565b600082601f830112610a7057600080fd5b8135610a808482602086016108fe565b91505092915050565b600082601f830112610a9a57600080fd5b8151610aaa84826020860161093c565b91505092915050565b600082601f830112610ac457600080fd5b8135610ad484826020860161097a565b91505092915050565b600082601f830112610aee57600080fd5b8151610afe8482602086016109b8565b91505092915050565b600060808284031215610b1957600080fd5b610b2360806113b8565b90506000610b3384828501610a4a565b6000830152506020610b4784828501610a4a565b6020830152506040610b5b84828501610d31565b6040830152506060610b6f84828501610d31565b60608301525092915050565b60006101608284031215610b8e57600080fd5b610b996101606113b8565b90506000610ba984828501610d31565b6000830152506020610bbd84828501610cf2565b6020830152506040610bd184828501610cf2565b6040830152506060610be584828501610cb3565b6060830152506080610bf984828501610a4a565b60808301525060a0610c0d84828501610d07565b60a08301525060c0610c2184828501610d31565b60c08301525060e082015167ffffffffffffffff811115610c4157600080fd5b610c4d84828501610a89565b60e083015250610100610c6284828501610cf2565b6101008301525061012082015167ffffffffffffffff811115610c8457600080fd5b610c9084828501610a0b565b61012083015250610140610ca684828501610a4a565b6101408301525092915050565b600081519050610cc281611813565b92915050565b600081519050610cd78161182a565b92915050565b600081359050610cec81611841565b92915050565b600081519050610d0181611841565b92915050565b600081519050610d1681611858565b92915050565b600081359050610d2b8161186f565b92915050565b600081519050610d408161186f565b92915050565b60008060408385031215610d5957600080fd5b6000610d67858286016109f6565b925050602083013567ffffffffffffffff811115610d8457600080fd5b610d9085828601610ab3565b9150509250929050565b60008060008060808587031215610db057600080fd5b6000610dbe878288016109f6565b945050602085013567ffffffffffffffff811115610ddb57600080fd5b610de787828801610ab3565b9350506040610df887828801610cdd565b9250506060610e0987828801610d1c565b91505092959194509250565b600060208284031215610e2757600080fd5b600082013567ffffffffffffffff811115610e4157600080fd5b610e4d84828501610a5f565b91505092915050565b600080600060608486031215610e6b57600080fd5b600084015167ffffffffffffffff811115610e8557600080fd5b610e9186828701610b7b565b9350506020610ea286828701610a35565b925050604084015167ffffffffffffffff811115610ebf57600080fd5b610ecb86828701610add565b9150509250925092565b600060208284031215610ee757600080fd5b6000610ef584828501610cc8565b91505092915050565b600060208284031215610f1057600080fd5b6000610f1e84828501610d07565b91505092915050565b610f3081611515565b82525050565b610f3f81611515565b82525050565b610f56610f5182611515565b611619565b82525050565b6000610f678261146b565b610f718185611481565b9350610f818185602086016115b5565b610f8a816116ad565b840191505092915050565b6000610fa08261146b565b610faa8185611492565b9350610fba8185602086016115b5565b80840191505092915050565b6000610fd182611476565b610fdb818561149d565b9350610feb8185602086016115b5565b610ff4816116ad565b840191505092915050565b600061100a82611476565b61101481856114ae565b93506110248185602086016115b5565b61102d816116ad565b840191505092915050565b60006110456014836114ae565b9150611050826116d8565b602082019050919050565b6000611068600e836114ae565b915061107382611701565b602082019050919050565b600061108b6015836114ae565b91506110968261172a565b602082019050919050565b60006110ae6011836114ae565b91506110b982611753565b602082019050919050565b60006110d16011836114ae565b91506110dc8261177c565b602082019050919050565b60006110f46016836114ae565b91506110ff826117a5565b602082019050919050565b60006040830160008301516111226000860182610f27565b506020830151848203602086015261113a8282610fc6565b9150508091505092915050565b6111586111538261153d565b61162b565b82525050565b6111678161156b565b82525050565b61117681611575565b82525050565b61118581611585565b82525050565b61119481611599565b82525050565b60006111a68286610f45565b6014820191506111b68285611147565b6002820191506111c68284610f95565b9150819050949350505050565b60006020820190506111e86000830184610f36565b92915050565b600060208201905081810360008301526112088184610f5c565b905092915050565b6000602082019050818103600083015261122a8184610fff565b905092915050565b6000604082019050818103600083015261124c8185610fff565b905061125b602083018461117c565b9392505050565b6000602082019050818103600083015261127b81611038565b9050919050565b6000602082019050818103600083015261129b8161105b565b9050919050565b600060208201905081810360008301526112bb8161107e565b9050919050565b600060208201905081810360008301526112db816110a1565b9050919050565b600060208201905081810360008301526112fb816110c4565b9050919050565b6000602082019050818103600083015261131b816110e7565b9050919050565b6000602082019050818103600083015261133c818461110a565b905092915050565b6000602082019050611359600083018461115e565b92915050565b6000606082019050611374600083018661116d565b81810360208301526113868185610f5c565b9050611395604083018461118b565b949350505050565b60006020820190506113b2600083018461117c565b92915050565b60006113c26113d3565b90506113ce82826115e8565b919050565b6000604051905090565b600067ffffffffffffffff8211156113f8576113f761167e565b5b602082029050602081019050919050565b600067ffffffffffffffff8211156114245761142361167e565b5b61142d826116ad565b9050602081019050919050565b600067ffffffffffffffff8211156114555761145461167e565b5b61145e826116ad565b9050602081019050919050565b600081519050919050565b600081519050919050565b600082825260208201905092915050565b600081905092915050565b600082825260208201905092915050565b600082825260208201905092915050565b60006114ca8261156b565b91506114d58361156b565b9250827fffffffffffffffffffffffffffffffffffffffffffffffffffffffffffffffff0382111561150a5761150961164f565b5b828201905092915050565b60006115208261154b565b9050919050565b60008115159050919050565b6000819050919050565b600061ffff82169050919050565b600073ffffffffffffffffffffffffffffffffffffffff82169050919050565b6000819050919050565b600063ffffffff82169050919050565b600067ffffffffffffffff82169050919050565b600060ff82169050919050565b82818337600083830152505050565b60005b838110156115d35780820151818401526020810190506115b8565b838111156115e2576000848401525b50505050565b6115f1826116ad565b810181811067ffffffffffffffff821117156116105761160f61167e565b5b80604052505050565b60006116248261163d565b9050919050565b6000611636826116be565b9050919050565b6000611648826116cb565b9050919050565b7f4e487b7100000000000000000000000000000000000000000000000000000000600052601160045260246000fd5b7f4e487b7100000000000000000000000000000000000000000000000000000000600052604160045260246000fd5b6000601f19601f8301169050919050565b60008160f01b9050919050565b60008160601b9050919050565b7f746f55696e7431365f6f75744f66426f756e6473000000000000000000000000600082015250565b7f736c6963655f6f766572666c6f77000000000000000000000000000000000000600082015250565b7f746f416464726573735f6f75744f66426f756e64730000000000000000000000600082015250565b7f5061796c6f616420746f6f2073686f7274000000000000000000000000000000600082015250565b7f736c6963655f6f75744f66426f756e6473000000000000000000000000000000600082015250565b7f496e76616c696420636f6d6d656e74206c656e67746800000000000000000000600082015250565b6117d781611515565b81146117e257600080fd5b50565b6117ee81611527565b81146117f957600080fd5b50565b61180581611533565b811461181057600080fd5b50565b61181c8161153d565b811461182757600080fd5b50565b6118338161156b565b811461183e57600080fd5b50565b61184a81611575565b811461185557600080fd5b50565b61186181611585565b811461186c57600080fd5b50565b61187881611599565b811461188357600080fd5b5056fea26469706673582212207ae13cec3b2993f14972c58c767fcfdb0ca91a169fd32882e6f5841c3305adaf64736f6c63430008040033","linkReferences":{}},"methodIdentifiers":{"decodeCommentVaa(bytes)":"a4b38329","encodeCommentVaa(address,string)":"f99a0fb4","getMessageFee()":"4316dcd3","relayComment(bytes)":"82066299","sendComment(address,string,uint32,uint8)":"d01263cd","wormhole()":"84acd1bb"},"id":0}